{
  "contractName": "PacktTokenSale",
  "abi": [
    {
      "constant": true,
      "inputs": [],
      "name": "tokenContract",
      "outputs": [
        {
          "name": "",
          "type": "address"
        }
      ],
      "payable": false,
      "stateMutability": "view",
      "type": "function"
    },
    {
      "constant": true,
      "inputs": [],
      "name": "tokenPrice",
      "outputs": [
        {
          "name": "",
          "type": "uint256"
        }
      ],
      "payable": false,
      "stateMutability": "view",
      "type": "function"
    },
    {
      "inputs": [
        {
          "name": "_tokenContract",
          "type": "address"
        },
        {
          "name": "_tokenPrice",
          "type": "uint256"
        }
      ],
      "payable": false,
      "stateMutability": "nonpayable",
      "type": "constructor"
    },
    {
      "anonymous": false,
      "inputs": [
        {
          "indexed": true,
          "name": "_buyer",
          "type": "address"
        },
        {
          "indexed": true,
          "name": "_amount",
          "type": "uint256"
        }
      ],
      "name": "Sell",
      "type": "event"
    },
    {
      "constant": false,
      "inputs": [
        {
          "name": "_numberOfTokens",
          "type": "uint256"
        }
      ],
      "name": "buyTokens",
      "outputs": [],
      "payable": true,
      "stateMutability": "payable",
      "type": "function"
    },
    {
      "constant": false,
      "inputs": [],
      "name": "endSale",
      "outputs": [],
      "payable": false,
      "stateMutability": "nonpayable",
      "type": "function"
    }
  ],
  "bytecode": "0x608060405234801561001057600080fd5b506040516040806107d2833981018060405281019080805190602001909291908051906020019092919050505033600260006101000a81548173ffffffffffffffffffffffffffffffffffffffff021916908373ffffffffffffffffffffffffffffffffffffffff160217905550816000806101000a81548173ffffffffffffffffffffffffffffffffffffffff021916908373ffffffffffffffffffffffffffffffffffffffff1602179055508060018190555050506106fc806100d66000396000f300608060405260043610610062576000357c0100000000000000000000000000000000000000000000000000000000900463ffffffff1680633610724e14610067578063380d831b1461008757806355a373d61461009e5780637ff9b596146100f5575b600080fd5b61008560048036038101908080359060200190929190505050610120565b005b34801561009357600080fd5b5061009c61038f565b005b3480156100aa57600080fd5b506100b361066d565b604051808273ffffffffffffffffffffffffffffffffffffffff1673ffffffffffffffffffffffffffffffffffffffff16815260200191505060405180910390f35b34801561010157600080fd5b5061010a610692565b6040518082815260200191505060405180910390f35b61012c81600154610698565b3414151561013957600080fd5b806000809054906101000a900473ffffffffffffffffffffffffffffffffffffffff1673ffffffffffffffffffffffffffffffffffffffff166370a08231306040518263ffffffff167c0100000000000000000000000000000000000000000000000000000000028152600401808273ffffffffffffffffffffffffffffffffffffffff1673ffffffffffffffffffffffffffffffffffffffff168152602001915050602060405180830381600087803b1580156101f657600080fd5b505af115801561020a573d6000803e3d6000fd5b505050506040513d602081101561022057600080fd5b81019080805190602001909291905050501015151561023e57600080fd5b803373ffffffffffffffffffffffffffffffffffffffff167f5e5e995ce3133561afceaa51a9a154d5db228cd7525d34df5185582c18d3df0960405160405180910390a36000809054906101000a900473ffffffffffffffffffffffffffffffffffffffff1673ffffffffffffffffffffffffffffffffffffffff1663a9059cbb33836040518363ffffffff167c0100000000000000000000000000000000000000000000000000000000028152600401808373ffffffffffffffffffffffffffffffffffffffff1673ffffffffffffffffffffffffffffffffffffffff16815260200182815260200192505050602060405180830381600087803b15801561034657600080fd5b505af115801561035a573d6000803e3d6000fd5b505050506040513d602081101561037057600080fd5b8101908080519060200190929190505050151561038c57600080fd5b50565b600260009054906101000a900473ffffffffffffffffffffffffffffffffffffffff1673ffffffffffffffffffffffffffffffffffffffff163373ffffffffffffffffffffffffffffffffffffffff161415156103eb57600080fd5b6000809054906101000a900473ffffffffffffffffffffffffffffffffffffffff1673ffffffffffffffffffffffffffffffffffffffff1663a9059cbb600260009054906101000a900473ffffffffffffffffffffffffffffffffffffffff166000809054906101000a900473ffffffffffffffffffffffffffffffffffffffff1673ffffffffffffffffffffffffffffffffffffffff166370a08231306040518263ffffffff167c0100000000000000000000000000000000000000000000000000000000028152600401808273ffffffffffffffffffffffffffffffffffffffff1673ffffffffffffffffffffffffffffffffffffffff168152602001915050602060405180830381600087803b15801561050757600080fd5b505af115801561051b573d6000803e3d6000fd5b505050506040513d602081101561053157600080fd5b81019080805190602001909291905050506040518363ffffffff167c0100000000000000000000000000000000000000000000000000000000028152600401808373ffffffffffffffffffffffffffffffffffffffff1673ffffffffffffffffffffffffffffffffffffffff16815260200182815260200192505050602060405180830381600087803b1580156105c757600080fd5b505af11580156105db573d6000803e3d6000fd5b505050506040513d60208110156105f157600080fd5b8101908080519060200190929190505050151561060d57600080fd5b3373ffffffffffffffffffffffffffffffffffffffff166108fc3073ffffffffffffffffffffffffffffffffffffffff16319081150290604051600060405180830381858888f1935050505015801561066a573d6000803e3d6000fd5b50565b6000809054906101000a900473ffffffffffffffffffffffffffffffffffffffff1681565b60015481565b6000808314156106ab57600090506106ca565b81830290508183828115156106bc57fe5b041415156106c657fe5b8090505b929150505600a165627a7a7230582032f41d2e5bdd35288b8e92f6e6ea8c4836390162341f77b8847d6f4b2a7ebf6a0029",
  "source": "pragma solidity ^0.4.24;\n\nimport \"./PacktToken.sol\";\nimport \"./SafeMath.sol\";\n\ncontract PacktTokenSale {\n    PacktToken public tokenContract;\n    uint256 public tokenPrice;\n    address owner;\n\n    event Sell(address indexed _buyer, uint256 indexed _amount);\n\n    constructor(PacktToken _tokenContract, uint256 _tokenPrice) public {\n        owner = msg.sender;\n        tokenContract = _tokenContract;\n        tokenPrice = _tokenPrice;\n    }\n\n    function buyTokens(uint256 _numberOfTokens)\n        public\n        payable\n    {\n        require(msg.value == SafeMath.mul(_numberOfTokens, tokenPrice));\n\n        require(tokenContract.balanceOf(this) >= _numberOfTokens);\n\n        emit Sell(msg.sender, _numberOfTokens);\n\n        require(tokenContract.transfer(msg.sender, _numberOfTokens));\n    }\n\n    function endSale() public {\n        require(msg.sender == owner);\n\n        require(tokenContract.transfer(owner, tokenContract.balanceOf(this)));\n\n        msg.sender.transfer(address(this).balance);\n    }\n\n    function safeMultiply(uint256 x, uint256 y)\n        internal\n        pure\n        returns (uint z)\n    {\n        require(y == 0 || (z = x * y) / y == x);\n    }\n}\n",
  "sourcePath": "/home/richard/Projects/ethereum-projects/ethereum-book/PacktCoin/contracts/PackTokenSale.sol",
  "compiler": {
    "name": "solc",
    "version": "0.4.24+commit.e67f0147.Emscripten.clang"
  },
  "schemaVersion": "2.0.0",
  "updatedAt": "2018-08-02T15:59:36.371Z"
}